{
  "contractName": "FileSystem",
  "abi": [
    {
      "anonymous": false,
      "inputs": [
        {
          "indexed": false,
          "internalType": "string",
          "name": "id",
          "type": "string"
        },
        {
          "indexed": false,
          "internalType": "string",
          "name": "sex",
          "type": "string"
        },
        {
          "indexed": false,
          "internalType": "string",
          "name": "name",
          "type": "string"
        },
        {
          "indexed": false,
          "internalType": "string",
          "name": "ic",
          "type": "string"
        },
        {
          "indexed": false,
          "internalType": "string",
          "name": "dob",
          "type": "string"
        },
        {
          "indexed": false,
          "internalType": "string",
          "name": "date",
          "type": "string"
        },
        {
          "indexed": false,
          "internalType": "string",
          "name": "vaccinationStatus",
          "type": "string"
        }
      ],
      "name": "data",
      "type": "event"
    },
    {
      "constant": true,
      "inputs": [
        {
          "internalType": "string",
          "name": "",
          "type": "string"
        }
      ],
      "name": "store",
      "outputs": [
        {
          "internalType": "string",
          "name": "name",
          "type": "string"
        },
        {
          "internalType": "string",
          "name": "sex",
          "type": "string"
        },
        {
          "internalType": "string",
          "name": "ic",
          "type": "string"
        },
        {
          "internalType": "string",
          "name": "dob",
          "type": "string"
        },
        {
          "internalType": "string",
          "name": "vaccinationStatus",
          "type": "string"
        },
        {
          "internalType": "string",
          "name": "date",
          "type": "string"
        }
      ],
      "payable": false,
      "stateMutability": "view",
      "type": "function"
    },
    {
      "constant": false,
      "inputs": [
        {
          "internalType": "string",
          "name": "id",
          "type": "string"
        },
        {
          "internalType": "string",
          "name": "sex",
          "type": "string"
        },
        {
          "internalType": "string",
          "name": "name",
          "type": "string"
        },
        {
          "internalType": "string",
          "name": "ic",
          "type": "string"
        },
        {
          "internalType": "string",
          "name": "dob",
          "type": "string"
        },
        {
          "internalType": "string",
          "name": "date",
          "type": "string"
        },
        {
          "internalType": "string",
          "name": "vaccinationStatus",
          "type": "string"
        }
      ],
      "name": "createCert",
      "outputs": [],
      "payable": false,
      "stateMutability": "nonpayable",
      "type": "function"
    },
    {
      "constant": true,
      "inputs": [
        {
          "internalType": "string",
          "name": "id",
          "type": "string"
        }
      ],
      "name": "fetchCert",
      "outputs": [
        {
          "components": [
            {
              "internalType": "string",
              "name": "name",
              "type": "string"
            },
            {
              "internalType": "string",
              "name": "sex",
              "type": "string"
            },
            {
              "internalType": "string",
              "name": "ic",
              "type": "string"
            },
            {
              "internalType": "string",
              "name": "dob",
              "type": "string"
            },
            {
              "internalType": "string",
              "name": "vaccinationStatus",
              "type": "string"
            },
            {
              "internalType": "string",
              "name": "date",
              "type": "string"
            }
          ],
          "internalType": "struct FileSystem.item",
          "name": "",
          "type": "tuple"
        }
      ],
      "payable": false,
      "stateMutability": "view",
      "type": "function"
    }
  ],
  "bytecode": "0x608060405234801561001057600080fd5b5061118a806100206000396000f3fe608060405234801561001057600080fd5b50600436106100415760003560e01c8063131a0680146100465780634294aad61461007b578063c8df61c314610097575b600080fd5b610060600480360361005b9190810190610b78565b6100c7565b60405161007296959493929190610f7f565b60405180910390f35b61009560048036036100909190810190610bfa565b6104a9565b005b6100b160048036036100ac9190810190610bb9565b6105f1565b6040516100be919061100a565b60405180910390f35b600081805160208101820180518482526020830160208501208183528095505050505050600091509050806000018054600181600116156101000203166002900480601f0160208091040260200160405190810160405280929190818152602001828054600181600116156101000203166002900480156101895780601f1061015e57610100808354040283529160200191610189565b820191906000526020600020905b81548152906001019060200180831161016c57829003601f168201915b505050505090806001018054600181600116156101000203166002900480601f0160208091040260200160405190810160405280929190818152602001828054600181600116156101000203166002900480156102275780601f106101fc57610100808354040283529160200191610227565b820191906000526020600020905b81548152906001019060200180831161020a57829003601f168201915b505050505090806002018054600181600116156101000203166002900480601f0160208091040260200160405190810160405280929190818152602001828054600181600116156101000203166002900480156102c55780601f1061029a576101008083540402835291602001916102c5565b820191906000526020600020905b8154815290600101906020018083116102a857829003601f168201915b505050505090806003018054600181600116156101000203166002900480601f0160208091040260200160405190810160405280929190818152602001828054600181600116156101000203166002900480156103635780601f1061033857610100808354040283529160200191610363565b820191906000526020600020905b81548152906001019060200180831161034657829003601f168201915b505050505090806004018054600181600116156101000203166002900480601f0160208091040260200160405190810160405280929190818152602001828054600181600116156101000203166002900480156104015780601f106103d657610100808354040283529160200191610401565b820191906000526020600020905b8154815290600101906020018083116103e457829003601f168201915b505050505090806005018054600181600116156101000203166002900480601f01602080910402602001604051908101604052809291908181526020018280546001816001161561010002031660029004801561049f5780601f106104745761010080835404028352916020019161049f565b820191906000526020600020905b81548152906001019060200180831161048257829003601f168201915b5050505050905086565b6040518060c00160405280868152602001878152602001858152602001848152602001828152602001838152506000886040516104e69190610ec8565b908152602001604051809103902060008201518160000190805190602001906105109291906109f5565b50602082015181600101908051906020019061052d9291906109f5565b50604082015181600201908051906020019061054a9291906109f5565b5060608201518160030190805190602001906105679291906109f5565b5060808201518160040190805190602001906105849291906109f5565b5060a08201518160050190805190602001906105a19291906109f5565b509050507f8995aebb31acdfc96ae125ecd303a95fac10d9d1edc8da9b15fcd45b21e6ac94878688878786886040516105e09796959493929190610edf565b60405180910390a150505050505050565b6105f9610a75565b6000826040516106099190610ec8565b90815260200160405180910390206040518060c0016040529081600082018054600181600116156101000203166002900480601f0160208091040260200160405190810160405280929190818152602001828054600181600116156101000203166002900480156106bb5780601f10610690576101008083540402835291602001916106bb565b820191906000526020600020905b81548152906001019060200180831161069e57829003601f168201915b50505050508152602001600182018054600181600116156101000203166002900480601f01602080910402602001604051908101604052809291908181526020018280546001816001161561010002031660029004801561075d5780601f106107325761010080835404028352916020019161075d565b820191906000526020600020905b81548152906001019060200180831161074057829003601f168201915b50505050508152602001600282018054600181600116156101000203166002900480601f0160208091040260200160405190810160405280929190818152602001828054600181600116156101000203166002900480156107ff5780601f106107d4576101008083540402835291602001916107ff565b820191906000526020600020905b8154815290600101906020018083116107e257829003601f168201915b50505050508152602001600382018054600181600116156101000203166002900480601f0160208091040260200160405190810160405280929190818152602001828054600181600116156101000203166002900480156108a15780601f10610876576101008083540402835291602001916108a1565b820191906000526020600020905b81548152906001019060200180831161088457829003601f168201915b50505050508152602001600482018054600181600116156101000203166002900480601f0160208091040260200160405190810160405280929190818152602001828054600181600116156101000203166002900480156109435780601f1061091857610100808354040283529160200191610943565b820191906000526020600020905b81548152906001019060200180831161092657829003601f168201915b50505050508152602001600582018054600181600116156101000203166002900480601f0160208091040260200160405190810160405280929190818152602001828054600181600116156101000203166002900480156109e55780601f106109ba576101008083540402835291602001916109e5565b820191906000526020600020905b8154815290600101906020018083116109c857829003601f168201915b5050505050815250509050919050565b828054600181600116156101000203166002900490600052602060002090601f016020900481019282601f10610a3657805160ff1916838001178555610a64565b82800160010185558215610a64579182015b82811115610a63578251825591602001919060010190610a48565b5b509050610a719190610aab565b5090565b6040518060c001604052806060815260200160608152602001606081526020016060815260200160608152602001606081525090565b610acd91905b80821115610ac9576000816000905550600101610ab1565b5090565b90565b600082601f830112610ae157600080fd5b8135610af4610aef82611059565b61102c565b91508082526020830160208301858383011115610b1057600080fd5b610b1b8382846110f4565b50505092915050565b600082601f830112610b3557600080fd5b8135610b48610b4382611085565b61102c565b91508082526020830160208301858383011115610b6457600080fd5b610b6f8382846110f4565b50505092915050565b600060208284031215610b8a57600080fd5b600082013567ffffffffffffffff811115610ba457600080fd5b610bb084828501610ad0565b91505092915050565b600060208284031215610bcb57600080fd5b600082013567ffffffffffffffff811115610be557600080fd5b610bf184828501610b24565b91505092915050565b600080600080600080600060e0888a031215610c1557600080fd5b600088013567ffffffffffffffff811115610c2f57600080fd5b610c3b8a828b01610b24565b975050602088013567ffffffffffffffff811115610c5857600080fd5b610c648a828b01610b24565b965050604088013567ffffffffffffffff811115610c8157600080fd5b610c8d8a828b01610b24565b955050606088013567ffffffffffffffff811115610caa57600080fd5b610cb68a828b01610b24565b945050608088013567ffffffffffffffff811115610cd357600080fd5b610cdf8a828b01610b24565b93505060a088013567ffffffffffffffff811115610cfc57600080fd5b610d088a828b01610b24565b92505060c088013567ffffffffffffffff811115610d2557600080fd5b610d318a828b01610b24565b91505092959891949750929550565b6000610d4b826110bc565b610d5581856110d8565b9350610d65818560208601611103565b610d6e81611136565b840191505092915050565b6000610d84826110bc565b610d8e81856110e9565b9350610d9e818560208601611103565b80840191505092915050565b6000610db5826110b1565b610dbf81856110c7565b9350610dcf818560208601611103565b610dd881611136565b840191505092915050565b6000610dee826110b1565b610df881856110d8565b9350610e08818560208601611103565b610e1181611136565b840191505092915050565b600060c0830160008301518482036000860152610e398282610daa565b91505060208301518482036020860152610e538282610daa565b91505060408301518482036040860152610e6d8282610daa565b91505060608301518482036060860152610e878282610daa565b91505060808301518482036080860152610ea18282610daa565b91505060a083015184820360a0860152610ebb8282610daa565b9150508091505092915050565b6000610ed48284610d79565b915081905092915050565b600060e0820190508181036000830152610ef9818a610d40565b90508181036020830152610f0d8189610d40565b90508181036040830152610f218188610d40565b90508181036060830152610f358187610d40565b90508181036080830152610f498186610d40565b905081810360a0830152610f5d8185610d40565b905081810360c0830152610f718184610d40565b905098975050505050505050565b600060c0820190508181036000830152610f998189610de3565b90508181036020830152610fad8188610de3565b90508181036040830152610fc18187610de3565b90508181036060830152610fd58186610de3565b90508181036080830152610fe98185610de3565b905081810360a0830152610ffd8184610de3565b9050979650505050505050565b600060208201905081810360008301526110248184610e1c565b905092915050565b6000604051905081810181811067ffffffffffffffff8211171561104f57600080fd5b8060405250919050565b600067ffffffffffffffff82111561107057600080fd5b601f19601f8301169050602081019050919050565b600067ffffffffffffffff82111561109c57600080fd5b601f19601f8301169050602081019050919050565b600081519050919050565b600081519050919050565b600082825260208201905092915050565b600082825260208201905092915050565b600081905092915050565b82818337600083830152505050565b60005b83811015611121578082015181840152602081019050611106565b83811115611130576000848401525b50505050565b6000601f19601f830116905091905056fea365627a7a723158207abf9ce44a6abe291a3e6ff5142567e73e4f9c9aca78528e28d0dc0adede0fd96c6578706572696d656e74616cf564736f6c63430005100040",
  "source": "// SPDX-License-Identifier: MIT\npragma solidity >=0.5.16;\npragma experimental ABIEncoderV2;\n\ncontract FileSystem {\n    struct item {\n        string name;\n        string sex;\n        string ic;\n        string dob;\n        string vaccinationStatus;\n        string date;\n    }\n\n    mapping(string => item) public store;\n\n    event data(\n        string id,\n        string sex,\n        string name,\n        string ic,\n        string dob,\n        string date,\n        string vaccinationStatus\n    );\n\n    function createCert(\n        string memory id,\n        string memory sex,\n        string memory name,\n        string memory ic,\n        string memory dob,\n        string memory date,\n        string memory vaccinationStatus\n    ) public {\n        store[id] = item(name, sex, ic, dob, vaccinationStatus, date);\n        emit data(id, name, sex, ic, dob, vaccinationStatus, date);\n    }\n\n    function fetchCert(string memory id) public view returns (item memory) {\n        return store[id];\n    }\n}\n",
  "sourcePath": "/Users/yifan.g/code/imgyf/smu-blockchain-course/contracts/FileSystem.sol",
  "compiler": {
    "name": "solc",
    "version": "0.5.16+commit.9c3226ce.Emscripten.clang"
  },
  "schemaVersion": "3.4.7",
  "updatedAt": "2022-05-21T13:34:59.725Z",
  "devdoc": {
    "methods": {}
  },
  "userdoc": {
    "methods": {}
  }
}